{
  "_format": "hh-sol-artifact-1",
  "contractName": "ProjectCrowdfundFactory",
  "sourceName": "contracts/Crowdfund.sol",
  "abi": [
    {
      "inputs": [],
      "stateMutability": "nonpayable",
      "type": "constructor"
    },
    {
      "inputs": [],
      "name": "NeedsMoreThanZero",
      "type": "error"
    },
    {
      "inputs": [],
      "name": "admin",
      "outputs": [
        {
          "internalType": "address payable",
          "name": "",
          "type": "address"
        }
      ],
      "stateMutability": "view",
      "type": "function"
    },
    {
      "inputs": [
        {
          "internalType": "uint256",
          "name": "_target",
          "type": "uint256"
        }
      ],
      "name": "createProjectCrowdfund",
      "outputs": [],
      "stateMutability": "nonpayable",
      "type": "function"
    },
    {
      "inputs": [],
      "name": "getProjects",
      "outputs": [
        {
          "internalType": "contract ProjectCrowdfund[]",
          "name": "",
          "type": "address[]"
        }
      ],
      "stateMutability": "view",
      "type": "function"
    },
    {
      "inputs": [
        {
          "internalType": "contract ProjectCrowdfund",
          "name": "projectCrowdfund",
          "type": "address"
        }
      ],
      "name": "insertNewProject",
      "outputs": [],
      "stateMutability": "nonpayable",
      "type": "function"
    },
    {
      "inputs": [
        {
          "internalType": "uint256",
          "name": "",
          "type": "uint256"
        }
      ],
      "name": "projects",
      "outputs": [
        {
          "internalType": "contract ProjectCrowdfund",
          "name": "",
          "type": "address"
        }
      ],
      "stateMutability": "view",
      "type": "function"
    },
    {
      "inputs": [],
      "name": "projectsCount",
      "outputs": [
        {
          "internalType": "uint256",
          "name": "",
          "type": "uint256"
        }
      ],
      "stateMutability": "view",
      "type": "function"
    },
    {
      "inputs": [
        {
          "internalType": "address",
          "name": "_project",
          "type": "address"
        }
      ],
      "name": "removeProject",
      "outputs": [],
      "stateMutability": "nonpayable",
      "type": "function"
    }
  ],
  "bytecode": "0x608060405234801561001057600080fd5b50336000806101000a81548173ffffffffffffffffffffffffffffffffffffffff021916908373ffffffffffffffffffffffffffffffffffffffff160217905550613b38806100606000396000f3fe60806040523480156200001157600080fd5b5060043610620000885760003560e01c8063c73b302e1162000063578063c73b302e1462000103578063cfb28d411462000125578063dcc601281462000145578063f851a44014620001675762000088565b80630c0ad299146200008d578063107046bd14620000ad578063a25e97c114620000e3575b600080fd5b620000ab6004803603810190620000a5919062000624565b62000189565b005b620000cb6004803603810190620000c5919062000691565b620003b4565b604051620000da91906200072e565b60405180910390f35b620001016004803603810190620000fb919062000691565b620003f4565b005b6200010d62000472565b6040516200011c91906200075c565b60405180910390f35b6200014360048036038101906200013d9190620007d2565b62000478565b005b6200014f620004f8565b6040516200015e9190620008d2565b60405180910390f35b6200017162000588565b60405162000180919062000907565b60405180910390f35b3373ffffffffffffffffffffffffffffffffffffffff168173ffffffffffffffffffffffffffffffffffffffff1614620001fa576040517f08c379a0000000000000000000000000000000000000000000000000000000008152600401620001f190620009ab565b60405180910390fd5b60006002905060005b8180549050811015620003af578273ffffffffffffffffffffffffffffffffffffffff168282815481106200023d576200023c620009cd565b5b9060005260206000200160009054906101000a900473ffffffffffffffffffffffffffffffffffffffff1673ffffffffffffffffffffffffffffffffffffffff16036200039957816001838054905062000298919062000a2b565b81548110620002ac57620002ab620009cd565b5b9060005260206000200160009054906101000a900473ffffffffffffffffffffffffffffffffffffffff16828281548110620002ed57620002ec620009cd565b5b9060005260206000200160006101000a81548173ffffffffffffffffffffffffffffffffffffffff021916908373ffffffffffffffffffffffffffffffffffffffff1602179055508180548062000349576200034862000a66565b5b6001900381819060005260206000200160006101000a81549073ffffffffffffffffffffffffffffffffffffffff0219169055905560016000815480929190620003939062000a95565b91905055505b8080620003a69062000ac3565b91505062000203565b505050565b60028181548110620003c557600080fd5b906000526020600020016000915054906101000a900473ffffffffffffffffffffffffffffffffffffffff1681565b806000810362000430576040517ff45911f000000000000000000000000000000000000000000000000000000000815260040160405180910390fd5b3033836040516200044190620005ac565b6200044f9392919062000b21565b604051809103906000f0801580156200046c573d6000803e3d6000fd5b50505050565b60015481565b6002819080600181540180825580915050600190039060005260206000200160009091909190916101000a81548173ffffffffffffffffffffffffffffffffffffffff021916908373ffffffffffffffffffffffffffffffffffffffff16021790555060016000815480929190620004f09062000ac3565b919050555050565b606060028054806020026020016040519081016040528092919081815260200182805480156200057e57602002820191906000526020600020905b8160009054906101000a900473ffffffffffffffffffffffffffffffffffffffff1673ffffffffffffffffffffffffffffffffffffffff168152602001906001019080831162000533575b5050505050905090565b60008054906101000a900473ffffffffffffffffffffffffffffffffffffffff1681565b612fa48062000b5f83390190565b600080fd5b600073ffffffffffffffffffffffffffffffffffffffff82169050919050565b6000620005ec82620005bf565b9050919050565b620005fe81620005df565b81146200060a57600080fd5b50565b6000813590506200061e81620005f3565b92915050565b6000602082840312156200063d576200063c620005ba565b5b60006200064d848285016200060d565b91505092915050565b6000819050919050565b6200066b8162000656565b81146200067757600080fd5b50565b6000813590506200068b8162000660565b92915050565b600060208284031215620006aa57620006a9620005ba565b5b6000620006ba848285016200067a565b91505092915050565b6000819050919050565b6000620006ee620006e8620006e284620005bf565b620006c3565b620005bf565b9050919050565b60006200070282620006cd565b9050919050565b60006200071682620006f5565b9050919050565b620007288162000709565b82525050565b60006020820190506200074560008301846200071d565b92915050565b620007568162000656565b82525050565b60006020820190506200077360008301846200074b565b92915050565b60006200078682620005bf565b9050919050565b60006200079a8262000779565b9050919050565b620007ac816200078d565b8114620007b857600080fd5b50565b600081359050620007cc81620007a1565b92915050565b600060208284031215620007eb57620007ea620005ba565b5b6000620007fb84828501620007bb565b91505092915050565b600081519050919050565b600082825260208201905092915050565b6000819050602082019050919050565b6200083b8162000709565b82525050565b60006200084f838362000830565b60208301905092915050565b6000602082019050919050565b6000620008758262000804565b6200088181856200080f565b93506200088e8362000820565b8060005b83811015620008c5578151620008a9888262000841565b9750620008b6836200085b565b92505060018101905062000892565b5085935050505092915050565b60006020820190508181036000830152620008ee818462000868565b905092915050565b620009018162000779565b82525050565b60006020820190506200091e6000830184620008f6565b92915050565b600082825260208201905092915050565b7f46756e6374696f6e2069732063616c6c6564204e4f542066726f6d207468652060008201527f70726f6a65637420636f6e747261637400000000000000000000000000000000602082015250565b60006200099360308362000924565b9150620009a08262000935565b604082019050919050565b60006020820190508181036000830152620009c68162000984565b9050919050565b7f4e487b7100000000000000000000000000000000000000000000000000000000600052603260045260246000fd5b7f4e487b7100000000000000000000000000000000000000000000000000000000600052601160045260246000fd5b600062000a388262000656565b915062000a458362000656565b925082820390508181111562000a605762000a5f620009fc565b5b92915050565b7f4e487b7100000000000000000000000000000000000000000000000000000000600052603160045260246000fd5b600062000aa28262000656565b91506000820362000ab85762000ab7620009fc565b5b600182039050919050565b600062000ad08262000656565b91507fffffffffffffffffffffffffffffffffffffffffffffffffffffffffffffffff820362000b055762000b04620009fc565b5b600182019050919050565b62000b1b81620005df565b82525050565b600060608201905062000b38600083018662000b10565b62000b476020830185620008f6565b62000b5660408301846200074b565b94935050505056fe608060405262093a80600f553480156200001857600080fd5b5060405162002fa438038062002fa483398181016040528101906200003e91906200048f565b826000806101000a81548173ffffffffffffffffffffffffffffffffffffffff021916908373ffffffffffffffffffffffffffffffffffffffff16021790555081600160006101000a81548173ffffffffffffffffffffffffffffffffffffffff021916908373ffffffffffffffffffffffffffffffffffffffff160217905550806007819055506001600a60006101000a81548160ff02191690831515021790555042600681905550600f54600654620000fa91906200051a565b6009819055506001600e60008473ffffffffffffffffffffffffffffffffffffffff1673ffffffffffffffffffffffffffffffffffffffff16815260200190815260200160002060006101000a81548160ff02191690831515021790555060405180604001604052808373ffffffffffffffffffffffffffffffffffffffff16815260200142815250600d60008473ffffffffffffffffffffffffffffffffffffffff1673ffffffffffffffffffffffffffffffffffffffff16815260200190815260200160002060008201518160000160006101000a81548173ffffffffffffffffffffffffffffffffffffffff021916908373ffffffffffffffffffffffffffffffffffffffff160217905550602082015181600101559050506003600d60008473ffffffffffffffffffffffffffffffffffffffff1673ffffffffffffffffffffffffffffffffffffffff16815260200190815260200160002090806001815401808255809150506001900390600052602060002090600202016000909190919091506000820160009054906101000a900473ffffffffffffffffffffffffffffffffffffffff168160000160006101000a81548173ffffffffffffffffffffffffffffffffffffffff021916908373ffffffffffffffffffffffffffffffffffffffff16021790555060018201548160010155505060056000815480929190620003089062000555565b919050555060008054906101000a900473ffffffffffffffffffffffffffffffffffffffff1673ffffffffffffffffffffffffffffffffffffffff1663cfb28d41306040518263ffffffff1660e01b81526004016200036891906200060d565b600060405180830381600087803b1580156200038357600080fd5b505af115801562000398573d6000803e3d6000fd5b505050505050506200062a565b600080fd5b600073ffffffffffffffffffffffffffffffffffffffff82169050919050565b6000620003d782620003aa565b9050919050565b620003e981620003ca565b8114620003f557600080fd5b50565b6000815190506200040981620003de565b92915050565b60006200041c82620003aa565b9050919050565b6200042e816200040f565b81146200043a57600080fd5b50565b6000815190506200044e8162000423565b92915050565b6000819050919050565b620004698162000454565b81146200047557600080fd5b50565b60008151905062000489816200045e565b92915050565b600080600060608486031215620004ab57620004aa620003a5565b5b6000620004bb86828701620003f8565b9350506020620004ce868287016200043d565b9250506040620004e18682870162000478565b9150509250925092565b7f4e487b7100000000000000000000000000000000000000000000000000000000600052601160045260246000fd5b6000620005278262000454565b9150620005348362000454565b92508282019050808211156200054f576200054e620004eb565b5b92915050565b6000620005628262000454565b91507fffffffffffffffffffffffffffffffffffffffffffffffffffffffffffffffff8203620005975762000596620004eb565b5b600182019050919050565b6000819050919050565b6000620005cd620005c7620005c184620003aa565b620005a2565b620003aa565b9050919050565b6000620005e182620005ac565b9050919050565b6000620005f582620005d4565b9050919050565b6200060781620005e8565b82525050565b6000602082019050620006246000830184620005fc565b92915050565b61296a806200063a6000396000f3fe60806040526004361061016a5760003560e01c8063766c4f37116100d1578063bcc254f21161008a578063ceb3560511610064578063ceb356051461092a578063d4b8399214610968578063e4fc6b6d14610993578063f8737bc01461099d5761058c565b8063bcc254f2146108bd578063c45a0155146108e8578063cdbdd599146109135761058c565b8063766c4f37146107ab57806383197ef0146107ea5780638da5cb5b1461080157806393066b4c1461082c578063b3f3ab5c1461086b578063b579184f146108945761058c565b80633637351311610123578063363735131461068f5780633cb5d100146106cc5780634051ddac1461070a5780634dfefebc1461073e57806351b42b00146107695780637569b3d7146107805761058c565b806302fb0c5e146105915780630f15f4c0146105bc57806312065fe0146105d35780631807ee1b146105fe5780631d0d35f5146106275780631f741c7a146106645761058c565b3661058c573073ffffffffffffffffffffffffffffffffffffffff163373ffffffffffffffffffffffffffffffffffffffff167fc42c15cc7634e8240dff61f8cbb89e641caefa834467ae046d3e6b1a50d17b84346040516101cc9190611e4c565b60405180910390a3600c60003373ffffffffffffffffffffffffffffffffffffffff1673ffffffffffffffffffffffffffffffffffffffff16815260200190815260200160002060009054906101000a900460ff1661044f576001600c60003373ffffffffffffffffffffffffffffffffffffffff1673ffffffffffffffffffffffffffffffffffffffff16815260200190815260200160002060006101000a81548160ff02191690831515021790555060405180606001604052803373ffffffffffffffffffffffffffffffffffffffff16815260200134815260200142815250600b60003373ffffffffffffffffffffffffffffffffffffffff1673ffffffffffffffffffffffffffffffffffffffff16815260200190815260200160002060008201518160000160006101000a81548173ffffffffffffffffffffffffffffffffffffffff021916908373ffffffffffffffffffffffffffffffffffffffff16021790555060208201518160010155604082015181600201559050506002600b60003373ffffffffffffffffffffffffffffffffffffffff1673ffffffffffffffffffffffffffffffffffffffff16815260200190815260200160002090806001815401808255809150506001900390600052602060002090600302016000909190919091506000820160009054906101000a900473ffffffffffffffffffffffffffffffffffffffff168160000160006101000a81548173ffffffffffffffffffffffffffffffffffffffff021916908373ffffffffffffffffffffffffffffffffffffffff160217905550600182015481600101556002820154816002015550506004600081548092919061044590611e96565b919050555061058a565b6000600b60003373ffffffffffffffffffffffffffffffffffffffff1673ffffffffffffffffffffffffffffffffffffffff1681526020019081526020016000209050348160010160008282546104a69190611ede565b9250508190555060006002905060005b600454811015610586573373ffffffffffffffffffffffffffffffffffffffff168282815481106104ea576104e9611f12565b5b906000526020600020906003020160000160009054906101000a900473ffffffffffffffffffffffffffffffffffffffff1673ffffffffffffffffffffffffffffffffffffffff1603610573573482828154811061054b5761054a611f12565b5b9060005260206000209060030201600101600082825461056b9190611ede565b925050819055505b808061057e90611e96565b9150506104b6565b5050505b005b600080fd5b34801561059d57600080fd5b506105a66109c8565b6040516105b39190611f5c565b60405180910390f35b3480156105c857600080fd5b506105d16109db565b005b3480156105df57600080fd5b506105e8610ade565b6040516105f59190611e4c565b60405180910390f35b34801561060a57600080fd5b5061062560048036038101906106209190611fa8565b610ae6565b005b34801561063357600080fd5b5061064e60048036038101906106499190612033565b610b80565b60405161065b9190611f5c565b60405180910390f35b34801561067057600080fd5b50610679610ba0565b6040516106869190611e4c565b60405180910390f35b34801561069b57600080fd5b506106b660048036038101906106b19190612033565b610ba6565b6040516106c39190611f5c565b60405180910390f35b3480156106d857600080fd5b506106f360048036038101906106ee9190611fa8565b610bc6565b604051610701929190612081565b60405180910390f35b34801561071657600080fd5b5061071f610c1a565b6040516107359a999897969594939291906122b5565b60405180910390f35b34801561074a57600080fd5b50610753610dff565b6040516107609190611e4c565b60405180910390f35b34801561077557600080fd5b5061077e610e05565b005b34801561078c57600080fd5b50610795610f08565b6040516107a29190611e4c565b60405180910390f35b3480156107b757600080fd5b506107d260048036038101906107cd9190612033565b610f0e565b6040516107e19392919061235f565b60405180910390f35b3480156107f657600080fd5b506107ff610f58565b005b34801561080d57600080fd5b50610816611104565b6040516108239190612396565b60405180910390f35b34801561083857600080fd5b50610853600480360381019061084e9190611fa8565b61112a565b6040516108629392919061235f565b60405180910390f35b34801561087757600080fd5b50610892600480360381019061088d9190612033565b611184565b005b3480156108a057600080fd5b506108bb60048036038101906108b691906123dd565b611603565b005b3480156108c957600080fd5b506108d261192e565b6040516108df9190611e4c565b60405180910390f35b3480156108f457600080fd5b506108fd611934565b60405161090a919061240a565b60405180910390f35b34801561091f57600080fd5b50610928611958565b005b34801561093657600080fd5b50610951600480360381019061094c9190612033565b611b0f565b60405161095f929190612081565b60405180910390f35b34801561097457600080fd5b5061097d611b53565b60405161098a9190611e4c565b60405180910390f35b61099b611b59565b005b3480156109a957600080fd5b506109b2611e2d565b6040516109bf9190611e4c565b60405180910390f35b600a60009054906101000a900460ff1681565b600160009054906101000a900473ffffffffffffffffffffffffffffffffffffffff1673ffffffffffffffffffffffffffffffffffffffff163373ffffffffffffffffffffffffffffffffffffffff1614610a6b576040517f08c379a0000000000000000000000000000000000000000000000000000000008152600401610a6290612482565b60405180910390fd5b60001515600a60009054906101000a900460ff16151514610ac1576040517f08c379a0000000000000000000000000000000000000000000000000000000008152600401610ab8906124ee565b60405180910390fd5b6001600a60006101000a81548160ff021916908315150217905550565b600047905090565b600160009054906101000a900473ffffffffffffffffffffffffffffffffffffffff1673ffffffffffffffffffffffffffffffffffffffff163373ffffffffffffffffffffffffffffffffffffffff1614610b76576040517f08c379a0000000000000000000000000000000000000000000000000000000008152600401610b6d90612482565b60405180910390fd5b8060078190555050565b600e6020528060005260406000206000915054906101000a900460ff1681565b60065481565b600c6020528060005260406000206000915054906101000a900460ff1681565b60038181548110610bd657600080fd5b90600052602060002090600202016000915090508060000160009054906101000a900473ffffffffffffffffffffffffffffffffffffffff16908060010154905082565b6000806000806060600060606000806000600160009054906101000a900473ffffffffffffffffffffffffffffffffffffffff1630476007546002600454600360055460095460085485805480602002602001604051908101604052809291908181526020016000905b82821015610d2057838290600052602060002090600302016040518060600160405290816000820160009054906101000a900473ffffffffffffffffffffffffffffffffffffffff1673ffffffffffffffffffffffffffffffffffffffff1673ffffffffffffffffffffffffffffffffffffffff1681526020016001820154815260200160028201548152505081526020019060010190610c84565b50505050955083805480602002602001604051908101604052809291908181526020016000905b82821015610dd957838290600052602060002090600202016040518060400160405290816000820160009054906101000a900473ffffffffffffffffffffffffffffffffffffffff1673ffffffffffffffffffffffffffffffffffffffff1673ffffffffffffffffffffffffffffffffffffffff16815260200160018201548152505081526020019060010190610d47565b505050509350995099509950995099509950995099509950995090919293949596979899565b60085481565b600160009054906101000a900473ffffffffffffffffffffffffffffffffffffffff1673ffffffffffffffffffffffffffffffffffffffff163373ffffffffffffffffffffffffffffffffffffffff1614610e95576040517f08c379a0000000000000000000000000000000000000000000000000000000008152600401610e8c90612482565b60405180910390fd5b60011515600a60009054906101000a900460ff16151514610eeb576040517f08c379a0000000000000000000000000000000000000000000000000000000008152600401610ee29061255a565b60405180910390fd5b6000600a60006101000a81548160ff021916908315150217905550565b60055481565b600b6020528060005260406000206000915090508060000160009054906101000a900473ffffffffffffffffffffffffffffffffffffffff16908060010154908060020154905083565b600160009054906101000a900473ffffffffffffffffffffffffffffffffffffffff1673ffffffffffffffffffffffffffffffffffffffff163373ffffffffffffffffffffffffffffffffffffffff1614610fe8576040517f08c379a0000000000000000000000000000000000000000000000000000000008152600401610fdf90612482565b60405180910390fd5b60001515600a60009054906101000a900460ff1615151461103e576040517f08c379a0000000000000000000000000000000000000000000000000000000008152600401611035906124ee565b60405180910390fd5b60008054906101000a900473ffffffffffffffffffffffffffffffffffffffff1673ffffffffffffffffffffffffffffffffffffffff16630c0ad299306040518263ffffffff1660e01b8152600401611097919061240a565b600060405180830381600087803b1580156110b157600080fd5b505af11580156110c5573d6000803e3d6000fd5b50505050600160009054906101000a900473ffffffffffffffffffffffffffffffffffffffff1673ffffffffffffffffffffffffffffffffffffffff16ff5b600160009054906101000a900473ffffffffffffffffffffffffffffffffffffffff1681565b6002818154811061113a57600080fd5b90600052602060002090600302016000915090508060000160009054906101000a900473ffffffffffffffffffffffffffffffffffffffff16908060010154908060020154905083565b600160009054906101000a900473ffffffffffffffffffffffffffffffffffffffff1673ffffffffffffffffffffffffffffffffffffffff163373ffffffffffffffffffffffffffffffffffffffff1614611214576040517f08c379a000000000000000000000000000000000000000000000000000000000815260040161120b90612482565b60405180910390fd5b600e60008273ffffffffffffffffffffffffffffffffffffffff1673ffffffffffffffffffffffffffffffffffffffff16815260200190815260200160002060009054906101000a900460ff166112a0576040517f08c379a0000000000000000000000000000000000000000000000000000000008152600401611297906125c6565b60405180910390fd5b600160009054906101000a900473ffffffffffffffffffffffffffffffffffffffff1673ffffffffffffffffffffffffffffffffffffffff168173ffffffffffffffffffffffffffffffffffffffff1603611330576040517f08c379a000000000000000000000000000000000000000000000000000000000815260040161132790612632565b60405180910390fd5b6000600e60008373ffffffffffffffffffffffffffffffffffffffff1673ffffffffffffffffffffffffffffffffffffffff16815260200190815260200160002060006101000a81548160ff021916908315150217905550600d60008273ffffffffffffffffffffffffffffffffffffffff1673ffffffffffffffffffffffffffffffffffffffff168152602001908152602001600020600080820160006101000a81549073ffffffffffffffffffffffffffffffffffffffff0219169055600182016000905550506005600081548092919061140c90612652565b919050555060006003905060005b81805490508110156115fe578273ffffffffffffffffffffffffffffffffffffffff168282815481106114505761144f611f12565b5b906000526020600020906002020160000160009054906101000a900473ffffffffffffffffffffffffffffffffffffffff1673ffffffffffffffffffffffffffffffffffffffff16036115eb5760008190505b600183805490506114b4919061267b565b81101561159057826001826114c99190611ede565b815481106114da576114d9611f12565b5b90600052602060002090600202018382815481106114fb576114fa611f12565b5b90600052602060002090600202016000820160009054906101000a900473ffffffffffffffffffffffffffffffffffffffff168160000160006101000a81548173ffffffffffffffffffffffffffffffffffffffff021916908373ffffffffffffffffffffffffffffffffffffffff16021790555060018201548160010155905050808061158890611e96565b9150506114a3565b50818054806115a2576115a16126af565b5b6001900381819060005260206000209060020201600080820160006101000a81549073ffffffffffffffffffffffffffffffffffffffff02191690556001820160009055505090555b80806115f690611e96565b91505061141a565b505050565b600160009054906101000a900473ffffffffffffffffffffffffffffffffffffffff1673ffffffffffffffffffffffffffffffffffffffff163373ffffffffffffffffffffffffffffffffffffffff1614611693576040517f08c379a000000000000000000000000000000000000000000000000000000000815260040161168a90612482565b60405180910390fd5b600e60008273ffffffffffffffffffffffffffffffffffffffff1673ffffffffffffffffffffffffffffffffffffffff16815260200190815260200160002060009054906101000a900460ff1615611720576040517f08c379a00000000000000000000000000000000000000000000000000000000081526004016117179061272a565b60405180910390fd5b6001600e60008373ffffffffffffffffffffffffffffffffffffffff1673ffffffffffffffffffffffffffffffffffffffff16815260200190815260200160002060006101000a81548160ff02191690831515021790555060405180604001604052808273ffffffffffffffffffffffffffffffffffffffff16815260200142815250600d60008373ffffffffffffffffffffffffffffffffffffffff1673ffffffffffffffffffffffffffffffffffffffff16815260200190815260200160002060008201518160000160006101000a81548173ffffffffffffffffffffffffffffffffffffffff021916908373ffffffffffffffffffffffffffffffffffffffff160217905550602082015181600101559050506003600d60008373ffffffffffffffffffffffffffffffffffffffff1673ffffffffffffffffffffffffffffffffffffffff16815260200190815260200160002090806001815401808255809150506001900390600052602060002090600202016000909190919091506000820160009054906101000a900473ffffffffffffffffffffffffffffffffffffffff168160000160006101000a81548173ffffffffffffffffffffffffffffffffffffffff021916908373ffffffffffffffffffffffffffffffffffffffff1602179055506001820154816001015550506005600081548092919061192690611e96565b919050555050565b60045481565b60008054906101000a900473ffffffffffffffffffffffffffffffffffffffff1681565b600160009054906101000a900473ffffffffffffffffffffffffffffffffffffffff1673ffffffffffffffffffffffffffffffffffffffff163373ffffffffffffffffffffffffffffffffffffffff16146119e8576040517f08c379a00000000000000000000000000000000000000000000000000000000081526004016119df90612482565b60405180910390fd5b4760008103611a23576040517ff45911f000000000000000000000000000000000000000000000000000000000815260040160405180910390fd5b6009544211611a67576040517f08c379a0000000000000000000000000000000000000000000000000000000008152600401611a5e90612796565b60405180910390fd5b6008544711611aab576040517f08c379a0000000000000000000000000000000000000000000000000000000008152600401611aa290612802565b60405180910390fd5b600854600754611abb9190611ede565b471015611ad55760085447611ad0919061267b565b611ad9565b6007545b60086000828254611aea9190611ede565b92505081905550600f5460096000828254611b059190611ede565b9250508190555050565b600d6020528060005260406000206000915090508060000160009054906101000a900473ffffffffffffffffffffffffffffffffffffffff16908060010154905082565b60075481565b600160009054906101000a900473ffffffffffffffffffffffffffffffffffffffff1673ffffffffffffffffffffffffffffffffffffffff163373ffffffffffffffffffffffffffffffffffffffff1614611be9576040517f08c379a0000000000000000000000000000000000000000000000000000000008152600401611be090612482565b60405180910390fd5b60085460008103611c26576040517ff45911f000000000000000000000000000000000000000000000000000000000815260040160405180910390fd5b60055460008103611c63576040517ff45911f000000000000000000000000000000000000000000000000000000000815260040160405180910390fd5b6000600554600854611c759190612851565b9050600060088190555060006003805480602002602001604051908101604052809291908181526020016000905b82821015611d3557838290600052602060002090600202016040518060400160405290816000820160009054906101000a900473ffffffffffffffffffffffffffffffffffffffff1673ffffffffffffffffffffffffffffffffffffffff1673ffffffffffffffffffffffffffffffffffffffff16815260200160018201548152505081526020019060010190611ca3565b50505050905060005b600554811015611e26576000828281518110611d5d57611d5c611f12565b5b60200260200101516000015173ffffffffffffffffffffffffffffffffffffffff1684604051611d8c906128b3565b60006040518083038185875af1925050503d8060008114611dc9576040519150601f19603f3d011682016040523d82523d6000602084013e611dce565b606091505b5050905080611e12576040517f08c379a0000000000000000000000000000000000000000000000000000000008152600401611e0990612914565b60405180910390fd5b508080611e1e90611e96565b915050611d3e565b5050505050565b60095481565b6000819050919050565b611e4681611e33565b82525050565b6000602082019050611e616000830184611e3d565b92915050565b7f4e487b7100000000000000000000000000000000000000000000000000000000600052601160045260246000fd5b6000611ea182611e33565b91507fffffffffffffffffffffffffffffffffffffffffffffffffffffffffffffffff8203611ed357611ed2611e67565b5b600182019050919050565b6000611ee982611e33565b9150611ef483611e33565b9250828201905080821115611f0c57611f0b611e67565b5b92915050565b7f4e487b7100000000000000000000000000000000000000000000000000000000600052603260045260246000fd5b60008115159050919050565b611f5681611f41565b82525050565b6000602082019050611f716000830184611f4d565b92915050565b600080fd5b611f8581611e33565b8114611f9057600080fd5b50565b600081359050611fa281611f7c565b92915050565b600060208284031215611fbe57611fbd611f77565b5b6000611fcc84828501611f93565b91505092915050565b600073ffffffffffffffffffffffffffffffffffffffff82169050919050565b600061200082611fd5565b9050919050565b61201081611ff5565b811461201b57600080fd5b50565b60008135905061202d81612007565b92915050565b60006020828403121561204957612048611f77565b5b60006120578482850161201e565b91505092915050565b600061206b82611fd5565b9050919050565b61207b81612060565b82525050565b60006040820190506120966000830185612072565b6120a36020830184611e3d565b9392505050565b6120b381611ff5565b82525050565b600081519050919050565b600082825260208201905092915050565b6000819050602082019050919050565b6120ee81611ff5565b82525050565b6120fd81611e33565b82525050565b60608201600082015161211960008501826120e5565b50602082015161212c60208501826120f4565b50604082015161213f60408501826120f4565b50505050565b60006121518383612103565b60608301905092915050565b6000602082019050919050565b6000612175826120b9565b61217f81856120c4565b935061218a836120d5565b8060005b838110156121bb5781516121a28882612145565b97506121ad8361215d565b92505060018101905061218e565b5085935050505092915050565b600081519050919050565b600082825260208201905092915050565b6000819050602082019050919050565b6121fd81612060565b82525050565b60408201600082015161221960008501826121f4565b50602082015161222c60208501826120f4565b50505050565b600061223e8383612203565b60408301905092915050565b6000602082019050919050565b6000612262826121c8565b61226c81856121d3565b9350612277836121e4565b8060005b838110156122a857815161228f8882612232565b975061229a8361224a565b92505060018101905061227b565b5085935050505092915050565b6000610140820190506122cb600083018d6120aa565b6122d8602083018c6120aa565b6122e5604083018b611e3d565b6122f2606083018a611e3d565b8181036080830152612304818961216a565b905061231360a0830188611e3d565b81810360c08301526123258187612257565b905061233460e0830186611e3d565b612342610100830185611e3d565b612350610120830184611e3d565b9b9a5050505050505050505050565b600060608201905061237460008301866120aa565b6123816020830185611e3d565b61238e6040830184611e3d565b949350505050565b60006020820190506123ab6000830184612072565b92915050565b6123ba81612060565b81146123c557600080fd5b50565b6000813590506123d7816123b1565b92915050565b6000602082840312156123f3576123f2611f77565b5b6000612401848285016123c8565b91505092915050565b600060208201905061241f60008301846120aa565b92915050565b600082825260208201905092915050565b7f4e6f74206f776e65720000000000000000000000000000000000000000000000600082015250565b600061246c600983612425565b915061247782612436565b602082019050919050565b6000602082019050818103600083015261249b8161245f565b9050919050565b7f5374617475732069732061637469766500000000000000000000000000000000600082015250565b60006124d8601083612425565b91506124e3826124a2565b602082019050919050565b60006020820190508181036000830152612507816124cb565b9050919050565b7f537461747573206973206e6f7420616374697665000000000000000000000000600082015250565b6000612544601483612425565b915061254f8261250e565b602082019050919050565b6000602082019050818103600083015261257381612537565b9050919050565b7f4e6f74206120636f6e7472696275746f72000000000000000000000000000000600082015250565b60006125b0601183612425565b91506125bb8261257a565b602082019050919050565b600060208201905081810360008301526125df816125a3565b9050919050565b7f43616e6e6f742072656d6f7665206f776e657200000000000000000000000000600082015250565b600061261c601383612425565b9150612627826125e6565b602082019050919050565b6000602082019050818103600083015261264b8161260f565b9050919050565b600061265d82611e33565b9150600082036126705761266f611e67565b5b600182039050919050565b600061268682611e33565b915061269183611e33565b92508282039050818111156126a9576126a8611e67565b5b92915050565b7f4e487b7100000000000000000000000000000000000000000000000000000000600052603160045260246000fd5b7f416c7265616479206120636f6e7472696275746f720000000000000000000000600082015250565b6000612714601583612425565b915061271f826126de565b602082019050919050565b6000602082019050818103600083015261274381612707565b9050919050565b7f556e6c6f636b2074696d6520686173206e6f7420706173736564000000000000600082015250565b6000612780601a83612425565b915061278b8261274a565b602082019050919050565b600060208201905081810360008301526127af81612773565b9050919050565b7f4e6f2072656d61696e696e672066756e647320746f20756e6c6f636b00000000600082015250565b60006127ec601c83612425565b91506127f7826127b6565b602082019050919050565b6000602082019050818103600083015261281b816127df565b9050919050565b7f4e487b7100000000000000000000000000000000000000000000000000000000600052601260045260246000fd5b600061285c82611e33565b915061286783611e33565b92508261287757612876612822565b5b828204905092915050565b600081905092915050565b50565b600061289d600083612882565b91506128a88261288d565b600082019050919050565b60006128be82612890565b9150819050919050565b7f4661696c656420746f2073656e64204574686572000000000000000000000000600082015250565b60006128fe601483612425565b9150612909826128c8565b602082019050919050565b6000602082019050818103600083015261292d816128f1565b905091905056fea2646970667358221220f4e3fb99a4e44b3be172452a5d0fb481a05188972179a83d98c3b30f94c4277e64736f6c63430008110033a26469706673582212207ba55fe34c5e9fdfce774f676f8916918aaa0d22721e703646c222997955730864736f6c63430008110033",
  "linkReferences": {},
  "deployedLinkReferences": {}
}